:100000000C9491000C9400000C9400000C940000DF
:100010000C9400000C9400000C9400000C94000060
:100020000C9400000C9400000C9400000C94000050
:100030000C9400000C9400000C9400000C94000040
:100040000C9400000C9400000C9400000C94000030
:100050000C9400000C9400000C9400000C94000020
:100060000C9400000C9400000C9400000C94000010
:100070000C9400000C9400000C9400000C94000000
:100080000C9400000C9400000C9400000C940000F0
:100090000C9400000C9400001027E80364000A0090
:1000A000010000100001100001000000000023000A
:1000B000000041540A0D0041542B43475053505700
:1000C000523D310A0D0041542B4347505353544184
:1000D0005455533F0A0D0041542B434F50533F0A90
:1000E0000D0041542B434D47463D310A0D0041540C
:1000F0002B43475053494E463D300A0D0041542B87
:10010000434D47533D256334343237303831383925
:100110003725630A0D002563000008000300AA00CC
:100120000000F894EE27EFBBF1E0F5BFE5BF8DE0EE
:10013000A2E0BB27ED938A95E9F780E090E2A0E08A
:10014000B1E0ED930197E9F7EAE1F1E0859195914E
:10015000009761F0A591B59105901590BF01F00150
:1001600005900D920197E1F7FB01F0CF8BBFE0E026
:10017000EEBBEFEFEDBFE0E2EEBFC0E0D9E00C94E4
:10018000C100EF97EF97EF97EF97229722E240E0B9
:1001900050E0E0E0E093C800E8E1E093C900E6E069
:1001A000E093CA00E0E0E093CD00ECE0E093CC0007
:1001B0003F98479A3E98469A3D9A3C9AE2EBF0E087
:1001C00011D21E2F1F3441F013D23E0E4F1EE5E018
:1001D000F0E03E164F06B4F3E7EBF0E003D20E2F4B
:1001E0000F3441F005D25E0E6F1EE5E0F0E05E16C2
:1001F0006F06B4F3E6ECF0E001D2E7EDF0E0FED1FB
:10020000E2EEF0E003D2459A379904C000240416C8
:10021000050609F05CC0A8ECB0E048D241E050E02F
:10022000EEEEF0E0F3D1E4E0F0E09E16AF06F4F479
:10023000E52DF62DDE01EA0FFB1FFF93EF9351D062
:10024000AF91BF91EC93DE01A50DB61DAC91AC3220
:1002500031F4E92DFA2D31969E2EAF2E3197E52DF2
:10026000F62D31965E2E6F2E3197DDCFA8ECB0E0E3
:100270001DD2EDEFF0E0FA93EA93CED1CDD188E034
:1002800075D12A96A4E6B0E011D29924AA24CAD145
:10029000EC91E03099F0C6D13C91E6E1F1E0FA93BF
:1002A000EA93E32FFF2766277727FBD184E05ED10F
:1002B0002696E1E0F0E07E0E8F1EE9CFA4E6B0E0E6
:1002C000F5D1AAE115D0A4EFB1E0F0D1449A369966
:1002D00006C040E050E0772488245524662494CF5B
:1002E000FFCFE091C800E078E1F3E091CE000895FF
:1002F0001A931A2FE091C800E072E1F31093CE0038
:1003000019910895B2D18D013C81A32FF1DFD8015D
:10031000ED91FD913196FE93EE93AED12596089521
:10032000BA93AA9326979FD110E0AC85BD85E0E0F3
:10033000F0E0ED93FC93EA89FB893196EA8BFB8B25
:100340003197E4912E2FE03009F409C1E12FE0301C
:1003500031F4253211F411E001C068D1FFC0E13061
:10036000A1F4253211F462D1F8C012E040E000E0BF
:100370002D3211F401E0F2C02B3211F44BE2EEC049
:10038000203211F440E2EAC002C0E23039F450E019
:1003900013E0203311F40068E1C003C0E33009F03A
:1003A000DDC0203310F02A3308F007C0AAE05A9FBE
:1003B000502DE22FE0535E0FD1C0E22FE33639F427
:1003C0003CD1E889F989A481AA933DD1C6C0E3371D
:1003D00029F433D13ED1EDD01E2F07C0E03749F4C8
:1003E0002CD137D1F2D01E2F086002600F7730E099
:1003F00038C0E43611F0E93611F4046002C0E53784
:1004000031F4E8E9F0E0EE83FF8315E00CC0E83555
:1004100011F4086003C0E83709F09FC0E2EAF0E099
:10042000EE83FF8314E002FF15C007D1A889B989C4
:100430001496ED91FD91EA87FB87AB85AA2322F400
:1004400024D1EA87FB874DE2403011F01F5F01C0E5
:100450000B7F07C0F2D0A889B98914961AD1EA8710
:10046000FB8700FD10C0151770F407FF08C002FFDE
:1004700004C00B7F242F115001C020E301C020E2F3
:10048000D5D05150F0CF312F01FF16C0303099F048
:1004900003FF06C0EE81FF812591EE83FF8305C037
:1004A000AE81BF812D91AE83BF83C0D0503009F0A3
:1004B00051503150EBCF48C020E3EE81FF81EDD0A9
:1004C000E887F987EE81FF813296EE83FF83E88526
:1004D000F985AA85BB85AE17BF0750F02F5FA885A9
:1004E000B985EA85FB85EA1BFB0BEA87FB87EFCF23
:1004F0002A3328F003FF02C0295F01C0295D04FDF3
:1005000019C0213320F4A885B985119709F409C0D1
:10051000531710F000FF01C011C020E207FF0AC00E
:1005200020E3006102FF06C00B7F4A938CD050305D
:1005300009F051507BD0503009F051503150A8850E
:10054000B985129708F0B8CF00FF07C0503029F0E6
:100550005150E0E2EA9377D0F9CF10E0ECCEAC85D1
:10056000BD85ED91FD9186D064960895FF92F82E99
:1005700026971A930A93DE01149683D08D01E0E04A
:10058000EC83ED83EE83EF83DE0118967AD0ED9154
:10059000FD91FA93EA931A930A93E2E8F1E0FA9351
:1005A000EA93DE011896BCDE198108812896FF9037
:1005B0000895BA93AA93A991B991EE27FF276D9157
:1005C000662311F03196FBCF0895BA93AA93AA2718
:1005D000BB27E991F9910590002011F01196FBCF0E
:1005E000FD010895FA93EA9380E0C0DF229679CE68
:1005F000A4E6B0E05BD0E1E0F0E00895FA93EA937E
:1006000080E0B4DF2296A4E6B0E050C0FA93EA930B
:1006100080E0ACDF22960895E22FFF276627772738
:1006200040D00895DE01A70DB81D08952A93AD8529
:10063000BE85EF85F88909950895E889F989349789
:10064000E88BF98B0895AD85BE85EF85F88909950E
:100650000895A889B9891496ED91FD91EE83FF83E1
:10066000AE81BF8108955A934A933A932A931A937D
:100670000A9308955D814C813B812A81198108810B
:1006800008950024AF0DB01D0895F195E195F04057
:100690000895ED91FC91119708950590F491E02D46
:1006A00008957A936A93FA93EA930895109639F02D
:1006B000A89580ED97E00197F1F71197C9F7089594
:00000001FF
